:020000040000FA
:060000000A128A11F92F1B
:100D50000A128A11C4260A128A1183160313111467
:100D600008000A128A11C4260A128A118316031374
:100D7000111508000A128A11C4260A128A11700875
:100D80008312031393000800831603131419C92E4A
:100D9000CA2EC42E11081F39031DCF2ED02EC42EEB
:100DA0000800C730F000D42EF00BD32ED72ED82E4B
:100DB000C330831203139F051F149F149F18E12E45
:100DC000E22EDE2E1E08F0007008A80008000A12AD
:100DD0008A11D1260A128A110A128A11A8260A1229
:100DE0008A113030F0000030F1000A128A11BA2660
:100DF0000A128A11831203132808F200F301720801
:100E0000F0007308F1000A128A11BA260A128A1138
:100E10000A128A11B1260A128A110230F400043033
:100E2000F300BA30F200F20B132FF30B132FF40B75
:100E3000132F0000E72E08002830831203139400BC
:100E4000831603139101831203132008A4002108C1
:100E5000A5002208A6002308A70002300310A40D55
:100E6000A50DA60DA70DFF3E031D2E2F2708F3008D
:100E70002608F2002508F1002408F0000030F700F1
:100E80003D30F6000930F5000030F4000A128A11F6
:100E900093270A128A117008FF3E831603139300EA
:100EA00094010800831603130F088F3960388F00F0
:100EB0008F110F118F100F14013083160317880044
:100EC00089010130831603138500860188011830DB
:100ED0008700890183120313850186018701880138
:100EE00089011F179F131F14831603139F131F12CB
:100EF0009F12003083120313A3000130A20086303A
:100F0000A100A030A0000A128A111C270A128A111F
:100F10008312031388140A128A11E7260A128A110F
:100F20000A128A1100280030FC000030FB0000305B
:100F3000FA000030F9007308720471047004031998
:100F4000A22FA32FF02FFD01FD0AB32F0130F800CF
:100F50000310F00DF10DF20DF30DF80BA82F013079
:100F6000F8007808FD07F31FB62FB72FA62F013022
:100F7000F8000310F90DFA0DFB0DFC0DF80BB92F5D
:100F800073087702031DCE2F72087602031DCE2F41
:100F900071087502031DCE2F70087402031CD12F37
:100FA000D22FE12F7008F4027108031C710FF502B3
:100FB0007208031C720FF6027308031C730FF7020A
:100FC000791401300310F30CF20CF10CF00CFF3E1D
:100FD000031DE22F0130FD02031DEF2FF02FB72F6D
:100FE0007C08F3007B08F2007A08F1007908F00031
:100FF000080083120313A80183010A128A11522FD9
:04400E00D4E0FFFFFC
:00000001FF
