:020000040000FA
:060000000A128A110C280F
:10000800FE00030EF1000A08F2000A128A111728EE
:100018000A128A110F28F501F601F701F801830188
:100028000A128A11C728831203138C1D1C281D2845
:1000380071281412141B212822282628941F2528E9
:1000480026282D281308F0007008F80014139413BC
:10005800141683160313941A322833284E281419B9
:10006800362837284E28831203131308F000700827
:10007800F8008C11141683160313141C4428452801
:100088003F2883120313130888005330F000F00B45
:100098004B286E28941A512852286E28141D55286A
:1000A80056286E28831203131308F0007008F8000E
:1000B800831603131410770883120313930014167E
:1000C8005330F000F00B66288316031314186D28BC
:1000D8006E286828831203138C1172088A00710E27
:1000E8008300FE0E7E0E090083120313081C7D2870
:1000F8007E288928F601F60A0830F400C930F30092
:10010800F30B8428F40B8428892883120313081816
:100118008E288F28A3287603031D93289428A328C4
:10012800F6017708013EF3007308F70077088500A9
:1001380010307706031DA128A228A328F701881CE0
:10014800A628A728B228F501F50A0830F400C93016
:10015800F300F30BAD28F40BAD28B2288312031378
:100168008818B728B82878287503031DBC28BD2827
:100178007828F5017708FF3EF3007308F700770841
:100188008500782808007030831603138F048F11B8
:100198000F118F100F148501860118308700033066
:1001A80088008901831603178801890183120313C4
:1001B80086018701880189018501F70110300A123B
:1001C8008A11F0200A128A110A128A1178200A125A
:1001D8008A110A128A110C28F30073088316031374
:1001E8009300363083120313940080308316031370
:1001F800940001309100871507168B170B1783128F
:0C02080003138C11831603138C150800DF
:04400E00D4E0FFFFFC
:00000001FF
