:020000040000FA
:060000000A128A11EB2F29
:10001400F800780803190F2810282428F31F132840
:10002400142824287009FA007109FB007209FC00E5
:100034007309FD00FA0A0319FB0A0319FC0A0319E0
:10004400FD0A2C287308FD007208FC007108FB00EF
:100054007008FA007308720471047004031D3328D5
:1000640034283D280030F3000030F2000030F10065
:100074000030F000C3289630F4007408F9004F28CB
:100084000130F4007408F90701300310FD0CFC0C76
:10009400FB0CFA0CFF3E031D4728FE307D05031DB3
:1000A40054285528422871280130F4007408F907AF
:1000B4000130FA07003003180130FB070030031841
:1000C4000130FC07003003180130FD070130031034
:1000D400FD0CFC0CFB0CFA0CFF3E031D6928FF30E1
:1000E4007D05031D76287728562883280130F902D8
:1000F4000130F4000310FA0DFB0DFC0DFD0DF40BA3
:100104007C28FC1B862887288D2802307902031856
:100114008C288D2878287918902891289928FF30E0
:10012400FA05FF30FB057F30FC05FF30FD050310A9
:10013400F90C7908F400F501F601F7011830031001
:10014400F40DF50DF60DF70DFF3E031DA1287408FF
:10015400FA047508FB047608FC047708FD047808A3
:100164000319B528B628BB28F31FB928BA28BB2819
:10017400FD177D08F3007C08F2007B08F1007A0883
:10018400F00008008312031323088039A80028080C
:10019400AD002308A8002807A9002908B300A21F5E
:1001A400D428D528D628331433080319DA28DB28B1
:1001B400EA28330A031DDF28E028E8280030A300DA
:1001C4000030A2000030A1000030A000A217F228E5
:1001D4000030A3000030A2000030A1000030A000D5
:1001E40027088039A8002808AD062708A800280792
:1001F400A9002908B200A61F0029012902293214E6
:1002040032080319062907291629320A031D0B2966
:100214000C2914290030A7000030A6000030A500E6
:100224000030A400A6171E290030A7000030A60045
:100234000030A5000030A400320803192229232924
:1002440028293308031D2729282931290030A30030
:100254000030A2000030A1000030A000242C2008AF
:10026400A8002808F00026080A128A1587220A1214
:100274008A11710883120313B9007008B800380892
:10028400A800A901AA01AB012B08B1002A08B000FB
:100294002908AF002808AE003908A800A901AA015E
:1002A400AB012B08B7002A08B6002908B5002808B6
:1002B400B4002108A8002808F00025080A128A15AD
:1002C40087220A128A11710883120313B900700875
:1002D400B8003808A800A901AA01AB012808AE0794
:1002E400290803110318013E03197929AF072A08C5
:1002F40003110318013E03198029B0072B080311C9
:100304000318013E03198729B1073908A800A90178
:10031400AA01AB012808B407290803110318013EF8
:1003240003199529B5072A0803110318013E031977
:100334009C29B6072B0803110318013E0319A329AE
:10034400B7072208A8002808F00024080A128A1512
:1003540087220A128A11710883120313B9007008E4
:10036400B8003808A800A901AA01AB012808AE0703
:10037400290803110318013E0319C129AF072A08EC
:1003840003110318013E0319C829B0072B080311F0
:100394000318013E0319CF29B1073908A800A901A0
:1003A400AA01AB012808B407290803110318013E68
:1003B4000319DD29B5072A0803110318013E03199F
:1003C400E429B6072B0803110318013E0319EB298E
:1003D400B7070830A8000310AE0DAF0DB00DB10D76
:1003E400A80BED292108A8002808F00024080A1207
:1003F4008A1587220A128A11710883120313B9001D
:100404007008B8003808A8003908A900AA01AB018F
:100414002808AE07290803110318013E0319132AFB
:10042400AF072A0803110318013E03191A2AB0075B
:100434002B0803110318013E0319212AB1072008D0
:10044400A8002808F00025080A128A1587220A1233
:100454008A11710883120313B9007008B8003808B0
:10046400A8003908A900AA01AB012808AE07290889
:1004740003110318013E0319402AAF072A08031188
:100484000318013E0319472AB0072B080311031868
:10049400013E03194E2AB1070830A8000310AE0D1F
:1004A400AF0DB00DB10DA80B502A2008A8002808E4
:1004B400F00024080A128A1587220A128A11710888
:1004C40083120313B9007008B8003808A80039086B
:1004D400A900AA01AB012808AE07290803110318D3
:1004E400013E0319762AAF072A0803110318013EB7
:1004F40003197D2AB0072B0803110318013E0319C1
:10050400842AB1072108A8002808F00026080A1246
:100514008A1587220A128A11710883120313B900FB
:100524007008B8003808A8003908A900AA01AB016E
:100534002808B407290803110318013E0319A32A44
:10054400B5072A0803110318013E0319AA2AB6079E
:100554002B0803110318013E0319B12AB707220817
:10056400A8002808F00025080A128A1587220A1212
:100574008A11710883120313B9007008B80038088F
:10058400A8003908A900AA01AB012808B407290862
:1005940003110318013E0319D02AB5072A080311D1
:1005A4000318013E0319D72AB6072B0803110318B1
:1005B400013E0319DE2AB7072208A8002808F00024
:1005C40026080A128A1587220A128A1171088312D0
:1005D4000313B9007008B8003808A8003908A90046
:1005E400AA01AB0108300310A80DA90DAA0DAB0D8B
:1005F400FF3E031DF52A2808B40729080311031830
:10060400013E0319062BB5072A0803110318013EFE
:1006140003190D2BB6072B0803110318013E031908
:10062400142BB7072E08A8002F08A9003008AA0029
:100634003108AB0018300310AB0CAA0CA90CA80CA1
:10064400FF3E031D1D2B2808B407290803110318B6
:10065400013E03192E2BB5072A0803110318013E86
:100664000319352BB6072B0803110318013E031990
:100674003C2BB7070830A8000310AE0DAF0DB00D2A
:10068400B10DA80B3E2B33083207A800A901A90D10
:100694002808823EB80029080318013EFF3EB9002D
:1006A400702B0130A8000310B40DB50DB60DB70DB5
:1006B400A80B552BB11F5F2B602B612B3414013019
:1006C400A8000310AE0DAF0DB00DB10DA80B632B38
:1006D400FF30B8070318B90AFF30B907B61F732BE8
:1006E400742B532BB201B11F782B792B952BFF3030
:1006F4002E05A800FF302F05A900FF303005AA0001
:100704007F303105AB002B082A042904280403197F
:100714008C2B8D2B902BB201B20A952B341C932B6E
:10072400942B952B8D2B32080319992B9A2BCB2BB9
:100734000130B407003003180130B5070030031846
:100744000130B607003003180130B707371CAB2B54
:10075400AC2BCB2B3408A8003508A9003608AA0016
:100764003708AB000130AC002B0DAB0CAA0CA90C64
:10077400A80CAC0BB62B2B08B7002A08B600290826
:10078400B5002808B4000130B8070318B90A0030CE
:10079400B9073908803AFF0080307F02031DD42B4B
:1007A400FF303802031CD72BD82BE32B7F30831266
:1007B4000313B7008030B6000030B5000030B40039
:1007C400182C831203133908803AFF0080307F020B
:1007D400031DEE2B013038020318F12BF22BFE2BF4
:1007E400003083120313B7000030B6000030B500A8
:1007F4000030B400AD01182C831203133808A8008C
:100804002808B300FF30B405FF30B5057F30B605C6
:100814000030B705331C0F2C102C112CB6173308DD
:10082400A8000310280CA9002908B7002D08A80067
:100834002808B7043708A3003608A2003508A10029
:100844003408A00008000130F3008030F4000A12DC
:100854008A1561220A128A110A128A159F210A1224
:100864008A112130F0000030F1000A128A15B121FA
:100874000A128A110030F000F1000A128A152923A5
:100884000A128A11700883120313D4005408EE006C
:100894000A128A15A8210A128A110330831203133B
:1008A400D6000830D5007630D400D40B572CD50BA5
:1008B400572CD60B572C0000433083120313BD0072
:1008C4007F30BC000030BB000030BA004030A300D1
:1008D400A030A2000030A1000030A0006E08D400B7
:1008E400D501D601D7015708F3005608F200550880
:1008F400F1005408F00001300A128A110A200A1289
:100904008A11730883120313A7007208A6007108E2
:10091400A5007008A4000A128A11C4200A128A11C0
:10092400831203132308C1002208C0002108BF005A
:100934002008BE000A128A1523260A128A1183127D
:1009440003133D0883160313A700831203133C0803
:1009540083160313A600831203133B0883160313A1
:10096400A500831203133A0883160313A40027086F
:1009740083120313A7008316031326088312031399
:10098400A60083160313250883120313A5008316F8
:100994000313240883120313A4004230A300C830B5
:1009A400A2000030A1000030A0000A128A11C42065
:1009B4000A128A11831203132308BD002208BC0003
:1009C4002108BB002008BA000A128A15A7250A12BA
:1009D4008A11831203133B08DF003A08DE000A3051
:1009E400F9000030FA005F08FC005E08FB000A1200
:1009F4008A150D240A128A117A0883120313DD0062
:100A04007908DC005D08A5005C08A4000A30A60093
:100A14000030A700B7300A128A153B220A128A1145
:100A24000A30F9000030FA000A30F0000030F1001A
:100A3400831203135F08F3005E08F2000A128A159A
:100A4400CE240A128A117108FC007008FB000A12F5
:100A54008A150D240A128A117A0883120313DB0003
:100A64007908DA005B08A5005A08A4000A30A60039
:100A74000030A700B2300A128A153B220A128A11EA
:100A84000A30F9000030FA006430F0000030F10060
:100A9400831203135F08F3005E08F2000A128A153A
:100AA400CE240A128A117108FC007008FB000A1295
:100AB4008A150D240A128A117A0883120313D900A5
:100AC4007908D8005908A5005808A4000A30A600DF
:100AD4000030A700AD300A128A153B220A128A118F
:100AE400B73083120313D4005408F000B2300A1252
:100AF4008A15D7220A128A11153083120313D400DF
:100B04005408F000A8300A128A151A220A128A110F
:100B1400B23083120313D4005408F000A8300A1230
:100B24008A15D7220A128A11A83083120313D4001B
:100B34005408F000AD300A128A15D7220A128A111D
:100B4400C0300A128A15D7210A128A110A128A158C
:100B540096210A128A110A128A159F210A128A11F1
:100B64001130F0000030F1000A128A15B1210A1286
:100B74008A110030F000F1000A128A1529230A12A2
:100B84008A11700883120313D4005408ED000A126A
:100B94008A15A8210A128A11033083120313D6007E
:100BA4000830D5007630D400D40BD62DD50BD62DF5
:100BB400D60BD62D00000A30F0000030F10083126D
:100BC40003136D08D400D5015408F2005508F3004E
:100BD4000A128A15CE240A128A1171088312031389
:100BE400E3007008E2006308A5006208A4000A306C
:100BF400A6000030A700C1300A128A153B220A124F
:100C04008A110A30F9000030FA00831203136D08C8
:100C1400D400D5015408FB005508FC000A128A15BB
:100C24000D240A128A117A0883120313E100790849
:100C3400E0006108A5006008A4000A30A6000030A6
:100C4400A700BC300A128A153B220A128A11BC3052
:100C540083120313D4005408F000C1300A128A1519
:100C6400D7220A128A110A128A1596210A128A11A7
:100C74000A128A159F210A128A113130F0000030BD
:100C8400F1000A128A15B1210A128A110030F0000B
:100C9400F1000A128A1529230A128A117008831294
:100CA4000313D4005408EC000A128A15A8210A126E
:100CB4008A11033083120313D6000830D50076302E
:100CC400D400D40B632ED50B632ED60B632E0000F9
:100CD400433083120313BD007F30BC000030BB00DF
:100CE4000030BA004030A300A030A2000030A100C0
:100CF4000030A0006C08D400D501D601D7015708F4
:100D0400F3005608F2005508F1005408F0000130D1
:100D14000A128A110A200A128A1173088312031311
:100D2400A7007208A6007108A5007008A4000A12A2
:100D34008A11C4200A128A11831203132308C100E2
:100D44002208C0002108BF002008BE000A128A152C
:100D540023260A128A11831203133D0883160313F0
:100D6400A300831203133C0883160313A200831207
:100D740003133B0883160313A100831203133A08D9
:100D840083160313A000230883120313A7008316FA
:100D94000313220883120313A600831603132108E6
:100DA40083120313A500831603132008831203136D
:100DB400A4004230A300C830A2000030A1000030DB
:100DC400A0000A128A11C4200A128A118312031382
:100DD4002308BD002208BC002108BB002008BA007B
:100DE4000A128A15A7250A128A11831203133B08D3
:100DF400EB003A08EA000A30F9000030FA006B0808
:100E0400FC006A08FB000A128A150D240A128A11D2
:100E14007A0883120313E9007908E8006908A50039
:100E24006808A4000A30A6000030A700D5300A12D2
:100E34008A153B220A128A110A30F9000030FA009E
:100E44000A30F0000030F100831203136B08F30042
:100E54006A08F2000A128A15CE240A128A1171084D
:100E6400FC007008FB000A128A150D240A128A116C
:100E74007A0883120313E7007908E6006708A500DF
:100E84006608A4000A30A6000030A700D0300A1279
:100E94008A153B220A128A110A30F9000030FA003E
:100EA4006430F0000030F100831203136B08F30088
:100EB4006A08F2000A128A15CE240A128A117108ED
:100EC400FC007008FB000A128A150D240A128A110C
:100ED4007A0883120313E5007908E4006508A50085
:100EE4006408A4000A30A6000030A700CB300A1220
:100EF4008A153B220A128A11D53083120313D400B7
:100F04005408F000D0300A128A15D7220A128A1126
:100F1400153083120313D4005408F000C6300A12AB
:100F24008A151A220A128A11D03083120313D400AC
:100F34005408F000C6300A128A15D7220A128A1100
:100F4400C63083120313D4005408F000CB300A12C5
:100F54008A15D7220A128A11AD30F3000030F4004A
:100F64000A128A1561220A128A111130F3008030A4
:100F7400F4000A128A1561220A128A11C130F300A0
:100F84000030F4000A128A1561220A128A11123002
:100F9400F3008030F4000A128A1561220A128A11C1
:100FA400CB30F3000030F4000A128A1561220A12D1
:100FB4008A111730F3008030F4000A128A15612276
:100FC4000A128A110A128A1596210A128A112E2CE3
:100FD40008008313583084006F300A128A158E215A
:100FE4000A128A11A0308400DA300A128A158E217E
:100FF4000A128A1183010A128A15002BFF1B0A2880
:1010040083137F1883170008840A0319FF0A080052
:1010140008308A000408840A8207003441344434C6
:1010240043342034203443344F344E3454342E3437
:10103400203420344C3455345A340034563420345B
:0C104400203400342E34003456340034C4
:10131C0064008001840A04060319003404068F2932
:10132C000A128A15BB210A128A158316031391140B
:10133C0008000A128A15BB210A128A158316031398
:10134C00111408000A128A15BB210A128A15831679
:10135C000313111508000A128A15BB210A128A15EB
:10136C0070088312031393000800831603131419D7
:10137C00C029C129BB2911081F39031DC629C7293A
:10138C00BB2908008312031388174E30F100EB3091
:10139C00F000F00BCF29F10BCF2983120313881324
:1013AC000800F2000A128A15AE220A128A15720877
:1013BC00831203138600881208130A128A15C82197
:1013CC000A128A150800F2000A128A15AE220A12B5
:1013DC008A157208831203138600881608130A12E2
:1013EC008A15C8210A128A15080038300A128A1583
:1013FC00D7210A128A150C300A128A15D7210A1223
:10140C008A1501300A128A15D7210A128A1506305C
:10141C000A128A15D7210A128A1580300A128A15E7
:10142C00D7210A128A150800F3007308F10071081D
:10143C00F200282A0130F1007108F2070130F100A6
:10144C007108F007700884000A128A150A200A1223
:10145C008A15F1007208840071088313800000085B
:10146C00031D392A3A2A202A080083120313A900E3
:10147C00A51F412A422A522A2D30FD00290884003A
:10148C007D08831380000130FD007D08A907A409A5
:10149C00A509A40A0319A50A2508F9002408F800CF
:1014AC002708FB002608FA0029080A128A15352598
:1014BC000A128A150800762A7408FF007308840043
:1014CC000A128A1500200A128A150A128A15E921B5
:1014DC000A128A150130F3070318F40A0030F407D6
:1014EC00740883120313FF00730884000A128A1510
:1014FC0000200A128A15003A031D852A862A622AC0
:10150C000800F800F401F5017008F200F30172080C
:10151C00F6007308F700781C942A952A9B2A760803
:10152C00F4070318F50A7708F50701300310F60DD8
:10153C00F70DFF3E031D9C2A0310F80C7808031DC1
:10154C00A82AA92A912A7508F1007408F00008004D
:10155C00FF308312031386008030F000700886057C
:10156C008812081788134E30F100EB30F000F00BA6
:10157C00BD2AF10BBD2A831203138817803006068F
:10158C00031DC92ACA2AD62A88134E30F100EB3023
:10159C00F000F00BCF2AF10BCF2A8312031388171C
:1015AC000800F3007308F1007108F200E12A013021
:1015BC00F1007108F2077208840083130008031D00
:1015CC00E82AE92ADD2AF22A0130F1007108F20733
:1015DC000130F1007108F007700884000008F10078
:1015EC0072088400710880000008031DFE2AFF2A7F
:1015FC00EA2A080083160313850186011830870038
:10160C0088018901831203138501860187018801F2
:10161C0089010030A3000130A2008630A100A03067
:10162C00A0000A128A1557230A128A150A128A1563
:10163C00FB210A128A150A128A1125240A128A150C
:10164C000A128A1100280A128A15BB210A128A155D
:10165C008316031391150A128A15BB210A128A15D7
:10166C00831203131308F200F3017208F4007308D9
:10167C00F5000A128A15BB210A128A15700371042F
:10168C00031D492B4A2B4E2B831603139112512BFE
:10169C0083160313911611167508F1007408F000E7
:1016AC00080028308312031394008316031391014E
:1016BC00831203132008A4002108A5002208A60009
:1016CC002308A70002300310A40DA50DA60DA70D2D
:1016DC00FF3E031D692B2708F3002608F20025089E
:1016EC00F1002408F0000030F7007A30F6001230D8
:1016FC00F5000030F4000A128A1568240A128A15C3
:10170C007008FF3E83160313930094018715071688
:10171C000800700871040319942B952BC42BF50148
:10172C00F50AA32B01300310F00DF10DFF3E031D44
:10173C00992B0130F4007408F507F11FA62BA72B89
:10174C00982B71087302031DAD2B70087202031CD9
:10175C00B02BB12BB72B7008F2027108031CF303EA
:10176C00F30201300310F10CF00CFF3E031DB82BFB
:10177C000130F502031DC32BC42BA72B7308F100FA
:10178C007208F0000800F501F601700871040319E5
:10179C00D02BD12B082CF701F70ADF2B01300310CB
:1017AC00F00DF10DFF3E031DD52B0130F400740834
:1017BC00F707F11FE22BE32BD42B01300310F50DAF
:1017CC00F60DFF3E031DE42B71087302031DF02B75
:1017DC0070087202031CF32BF42BFB2B7008F20223
:1017EC007108031CF303F302751401300310F10CA0
:1017FC00F00CFF3E031DFC2B0130F702031D072CE0
:10180C00082CE32B7608F1007508F0000800831211
:10181C000313A101FC1F132C142C1B2CFB09FC091A
:10182C00FB0A0319FC0AA101A10AFA1F1E2C1F2C8A
:10183C00242CF909FA09F90A0319FA0A79087A0425
:10184C000319292C2A2C592CA001A00A382C013060
:10185C000310F90DFA0DFF3E031D2E2C0130FD0077
:10186C007D08A007FA1F3B2C3C2C2D2C7A087C02FF
:10187C00031D422C79087B02031C452C462C4C2C56
:10188C007908FB027A08031CFC03FC0201300310EC
:10189C00FA0CF90CFF3E031D4D2C0130A002031D68
:1018AC00582C592C3C2C210803195D2C5E2C632CD4
:1018BC00FB09FC09FB0A0319FC0A7C08FA007B08EB
:1018CC00F90008000030FC000030FB000030FA008A
:1018DC000030F90073087204710470040319772C3A
:1018EC00782CC52CFD01FD0A882C0130F800031062
:1018FC00F00DF10DF20DF30DF80B7D2C0130F8000D
:10190C007808FD07F31F8B2C8C2C7B2C0130F800F6
:10191C000310F90DFA0DFB0DFC0DF80B8E2C730852
:10192C007702031DA32C72087602031DA32C7108E9
:10193C007502031DA32C70087402031CA62CA72C83
:10194C00B62C7008F4027108031C710FF5027208B2
:10195C00031C720FF6027308031C730FF702791441
:10196C0001300310F30CF20CF10CF00CFF3E031DD4
:10197C00B72C0130FD02031DC42CC52C8C2C7C080B
:10198C00F3007B08F2007A08F1007908F0000800F7
:10199C00F601F11FD22CD32CDA2CF009F109F00A44
:1019AC000319F10AF601F60AF31FDD2CDE2CE72CE5
:1019BC00F209F309F20A0319F30A0130F40074086E
:1019CC00F606F701F801700871040319EE2CEF2CE0
:1019DC00262DF501F50AFD2C01300310F00DF10D4B
:1019EC00FF3E031DF32C0130F4007408F507F11FC2
:1019FC00002D012DF22C01300310F70DF80DFF3ED8
:101A0C00031D022D71087302031D0E2D7008720246
:101A1C00031C112D122D192D7008F2027108031CD4
:101A2C00F303F302771401300310F10CF00CFF3EBA
:101A3C00031D1A2D0130F502031D252D262D012D18
:101A4C00760803192A2D2B2D302DF709F809F70AE2
:101A5C000319F80A7808F1007708F00008008312DF
:101A6C000313A3007908A1007808A0007B08F100FB
:101A7C007A08F0002108F3002008F2000A128A15F7
:101A8C00C9230A128A15710883120313A100700866
:101A9C00A0000130FC007C08A30720082104031DD2
:101AAC00582D592D3C2D23088400831380010130BF
:101ABC00A3027B08F1007A08F0007908F30078089B
:101ACC00F2000A128A158F230A128A157008FC007C
:101ADC007C0883120313A2007B08F1007A08F00043
:101AEC007908F3007808F2000A128A15C9230A1241
:101AFC008A157108F9007008F8000A308312031374
:101B0C002202031C8A2D8B2D8F2D0730FC007C08A4
:101B1C00A2073030FC007C08A2072208FC00230836
:101B2C0084007C08831380000130A30278087904B8
:101B3C00031DA12DA22D5F2D0130FC007C08A307F5
:101B4C0008000310831203133C0D3D0DBE003E082C
:101B5C00C4004408031DB32DB42DBD2D0030BD00B1
:101B6C000030BC000030BB000030BA00222E3A0816
:101B7C00BE003B08BF003C08C0003D08C1001F3040
:101B8C000310C10CC00CBF0CBE0CFF3E031DC62DB8
:101B9C003E08C2004208C300BC17FF30BA05FF3034
:101BAC00BB05FF30BC050030BD059630C402C41F18
:101BBC00E02DE12DFB2D4408803A973E0318E72DCC
:101BCC00E82DE92DB42D01300310BD0CBC0CBB0C61
:101BDC00BA0CFF3E031DEA2D0130BE003E08C407BF
:101BEC00031DF92DFA2DE92D122E20304402031C71
:101BFC00002E012E0D2EB42D0130BE000310BA0D97
:101C0C00BB0DBC0DBD0DBE0B042E0130C40244082F
:101C1C00031D112E122E022E43080319162E172EF9
:101C2C00222EBA09BB09BC09BD09BA0A0319BB0AA1
:101C3C000319BC0A0319BD0A0800831203134108D7
:101C4C008039C2004208CB004108C2004207C300E1
:101C5C004308D200C01F332E342E352E5214520896
:101C6C000319392E3A2E4A2E520A031D3E2E3F2EB0
:101C7C00472E0030C1000030C0000030BF000030E3
:101C8C00BE00C017C101522E0030C1000030C00090
:101C9C000030BF000030BE003D088039C200420851
:101CAC00CB063D08C2004207C3004308D300BC1F4B
:101CBC00602E612E622E531453080319662E672E64
:101CCC00772E530A031D6B2E6C2E742E0030BD0024
:101CDC000030BC000030BB000030BA00BC17BD01A6
:101CEC007F2E0030BD000030BC000030BB00003047
:101CFC00BA003D083C043B043A04031D862E872E93
:101D0C00A02E0030C1000030C0000030BF000030F9
:101D1C00BE008030C0047F30C1044B08C2004208B2
:101D2C00C1044108BD004008BC003F08BB003E0890
:101D3C00BA00FF2F5208031DA42EA52EAE2E003084
:101D4C00BD000030BC000030BB000030BA00FF2FDB
:101D5C005208C200C3014308C50053084202C40024
:101D6C00031CC50344087F3ECC0045080318013E04
:101D7C00003ECD004108CA004008C9003F08C80019
:101D8C003E08C7000030C1000030C0000030BF006A
:101D9C000030BE000030D1000030D0000030CF0049
:101DAC000030CE00D301242F53080319DE2EDF2E72
:101DBC00FF2E0130C2000310C70DC80DC90DCA0D8E
:101DCC00C20BE12E0130C2000310BE0DBF0DC00DC1
:101DDC00C10DC20BEA2ED11FF42EF52EF62E3E1499
:101DEC000130C2000310CE0DCF0DD00DD10DC20BA2
:101DFC00F82E3D084A02031D0D2F3C084902031D15
:101E0C000D2F3B084802031D0D2F3A084702031CF7
:101E1C00102F112F202F51173A08C7023B08031C13
:101E2C003B0FC8023C08031C3C0FC9023D08031CB5
:101E3C003D0FCA020130C2004208D3071A305302C8
:101E4C00031C292F2A2FDA2E4A0849044804470478
:101E5C000319312F322F512F4E14512F0130C20044
:101E6C000310BE0DBF0DC00DC10DC20B362FD11FFF
:101E7C00402F412F422F3E140130C2000310CE0DD3
:101E8C00CF0DD00DD10DC20B442FFF30CC07031852
:101E9C00CD0AFF30CD07C01F542F552F342FD3013F
:101EAC00D11F592F5A2F762FFF304E05C200FF300D
:101EBC004F05C300FF305005C4007F305105C500ED
:101ECC00450844044304420403196D2F6E2F712FEF
:101EDC00D301D30A762F3E1C742F752F762F6E2FBD
:101EEC00530803197A2F7B2FAC2F0130BE0700301B
:101EFC0003180130BF07003003180130C007003051
:101F0C0003180130C107411C8C2F8D2FAC2F3E08BC
:101F1C00C2003F08C3004008C4004108C50001309E
:101F2C00C600450DC50CC40CC30CC20CC60B972FB8
:101F3C004508C1004408C0004308BF004208BE0069
:101F4C000130CC070318CD0A0030CD074D08803A7C
:101F5C00FF0080307F02031DB52FFF304C02031CA5
:101F6C00B82FB92FC72FFF3083120313CC000030CA
:101F7C00CD000030C1000030C0000030BF00003088
:101F8C00BE00831203134D08803AFF0080307F029D
:101F9C00031DD22F01304C020318D52FD62FE32F5F
:101FAC0083120313CC01CD010030C1000030C000FE
:101FBC000030BF000030BE00CB01831203134C086D
:101FCC00C2004208D200521CEC2FED2FEF2FC0178D
:101FDC00F32F7F30C2004208C0055208C200031024
:101FEC00420CC3004308C1004B08C2004208C104A4
:041FFC00972E080014
:04400E00D2E0FFFFFE
:00000001FF
