:020000040000FA
:060000000A128A110C280F
:10000800FE00030EF1000A08F2000A128A111528F0
:100018000A128A110F28F401F50183010A128A11C4
:100028007628831203138C1D1A281B286F28141294
:10003800141B1F2820282428941F232824282B2811
:100048001308F0007008F50014139413141683169F
:100058000313941A302831284C28141934283528C9
:100068004C28831203131308F0007008F5008C1154
:10007800141683160313141C422843283D288312A0
:100088000313130888005330F000F00B49286C283C
:10009800941A4F2850286C28141D532854286C286B
:1000A800831203131308F0007008F5008316031376
:1000B8001410740883120313930014165330F000BD
:1000C800F00B64288316031314186B286C28662811
:1000D800831203138C1172088A00710E8300FE0EBE
:1000E8007E0E09007030831603138F048F110F11D1
:1000F8008F100F14013085008601183087008801A1
:1001080089010130831603178800890183120313BC
:10011800860187018801890185011F083F39403818
:100128009F001F14831603139F131F129F12203062
:100138000A128A11A9200A128A110A128A11DB20CE
:100148000A128A110A128A110C28F30073088316FE
:100158000313930036308312031394008030831600
:100168000313940001309100871507168B170B179E
:10017800831203138C11831603138C150800C730E0
:10018800F300C628F30BC528C928CA28C330831230
:1001980003139F051F149F149F18D328D428D02811
:1001A8001E08F3007308F4007408860008000A1299
:0C01B8008A11C3200A128A11DB280800FB
:04400E00D4E0FFFFFC
:00000001FF
