:020000040000FA
:100000000A128A11F32FFF1B0D2883137F18831701
:100010000008840A0319FF0A080000308A00040857
:10002000840A8207003420346734723461346434C3
:100030006F34733420342034203400344834753421
:100040006D34653464346134643420343D34203498
:10005000003425342034203420342034203420341B
:10006000203420340034543445344D34503420345A
:060070003D342034003491
:10068E0064008001840A0406031900340406482B12
:10069E008312031388174E30F100EB30F000F00B8D
:1006AE00562BF10B562B8312031388130800F200FE
:1006BE000A128A1148240A128A117208831203132D
:1006CE008600881208130A128A114F230A128A1101
:1006DE000800F2000A128A1148240A128A117208BE
:1006EE00831203138600881608130A128A114F23E9
:1006FE000A128A11080083160313081183120313BA
:10070E0008112F30F100BF30F000F00B8C2BF10BE5
:10071E008C2B912B8312031308151330F000F00B62
:10072E00962B992B831603130815080038300A12DE
:10073E008A115E230A128A110C300A128A115E2364
:10074E000A128A1101300A128A115E230A128A11C4
:10075E0006300A128A115E230A128A1180300A129A
:10076E008A115E230A128A11080083120313B6013E
:10077E001A30F000F00BC12B00008312031308197E
:10078E00C92BCA2BDB2B3530F000F00BCC2B831290
:10079E000313081DD32BD42BDB2BB601B60A1A304C
:1007AE00F000F00BD82B0000080083160317880109
:1007BE00890183160313850186018801870189014A
:1007CE008312031385018601870188018901B60111
:1007DE000A128A119D230A128A110A128A118C2674
:1007EE000A128A110A128A11002883120313D400E6
:1007FE00D01F022C032C132C2D30FD005408840026
:10080E007D08831380000130FD007D08D407CF09D9
:10081E00D009CF0A0319D00A5008F9004F08F80082
:10082E005208FB005108FA0054080A128A111A26BF
:10083E000A128A110800372C7408FF00730884000E
:10084E000A128A1103200A128A110A128A117023BF
:10085E000A128A110130F3070318F40A0030F40764
:10086E00740883120313FF00730884000A128A119E
:10087E0003200A128A11003A031D462C472C232C02
:10088E000800FF308312031386008030F0007008DA
:10089E0086058812081788134E30F100EB30F000F1
:1008AE00F00B572CF10B572C831203138817803043
:1008BE000606031D632C642C702C88134E30F10039
:1008CE00EB30F000F00B692CF10B692C8312031343
:1008DE0088170800F2007208F1007108F3007B2CF3
:1008EE000130F1007108F3077308840083130008C8
:1008FE00031D822C832C772C8C2C0130F100710877
:10090E00F3070130F1007108F00770088400000849
:10091E00F10073088400710880000008031D982CF4
:10092E00992C842C08007008710403199F2CA02C9C
:10093E00CF2CF501F50AAE2C01300310F00DF10DA0
:10094E00FF3E031DA42C0130F4007408F507F11FBF
:10095E00B12CB22CA32C71087302031DB82C700895
:10096E007202031CBB2CBC2CC22C7008F202710844
:10097E00031CF303F30201300310F10CF00CFF3EE5
:10098E00031DC32C0130F502031DCE2CCF2CB22C2F
:10099E007308F1007208F0000800F30183120313CC
:1009AE00081DDA2CDB2CD52C1330F000F00BDD2CCF
:1009BE00E02C831203130819E52CE62CF72C0130DA
:1009CE00F0007308073C013EEE2C0310F00DFF3EC5
:1009DE00031DEC2C7008FF3AF1007108F2050A2D88
:1009EE000130F0007308073C013EFF2C0310F00DA0
:1009FE00FF3E031DFD2C7008F1007108F20408196A
:100A0E00092D0A2D062D0130F0007008F30708306D
:100A1E007302031C132D142DD52C72080800F5013A
:100A2E00F6017008710403191D2D1E2D552DF701A9
:100A3E00F70A2C2D01300310F00DF10DFF3E031DB2
:100A4E00222D0130F4007408F707F11F2F2D302DE1
:100A5E00212D01300310F50DF60DFF3E031D312D36
:100A6E0071087302031D3D2D70087202031C402D88
:100A7E00412D482D7008F2027108031CF303F30296
:100A8E00751401300310F10CF00CFF3E031D492DBF
:100A9E000130F702031D542D552D302D7608F1002F
:100AAE007508F0000800F601F31F5E2D5F2D662D10
:100ABE00F209F309F20A0319F30AF601F60AF11F15
:100ACE00692D6A2D6F2DF009F109F00A0319F10A4B
:100ADE00700871040319742D752DA42DF501F50AF6
:100AEE00832D01300310F00DF10DFF3E031D792D06
:100AFE000130F4007408F507F11F862D872D782D2F
:100B0E0071087302031D8D2D70087202031C902D47
:100B1E00912D972D7008F2027108031CF303F30256
:100B2E0001300310F10CF00CFF3E031D982D013027
:100B3E00F502031DA32DA42D872D76080319A82DCC
:100B4E00A92DAE2DF209F309F20A0319F30A73085F
:100B5E00F1007208F0000800F601F11FB72DB82D54
:100B6E00BF2DF009F109F00A0319F10AF601F60A90
:100B7E00F31FC22DC32DCC2DF209F309F20A03196E
:100B8E00F30A0130F4007408F606F701F801700854
:100B9E0071040319D32DD42D0B2EF501F50AE22D78
:100BAE0001300310F00DF10DFF3E031DD82D013065
:100BBE00F4007408F507F11FE52DE62DD72D013051
:100BCE000310F70DF80DFF3E031DE72D710873029C
:100BDE00031DF32D70087202031CF62DF72DFE2D4A
:100BEE007008F2027108031CF303F302771401304C
:100BFE000310F10CF00CFF3E031DFF2D0130F5022A
:100C0E00031D0A2E0B2EE62D760803190F2E102E1D
:100C1E00152EF709F809F70A0319F80A7808F100F2
:100C2E007708F000080083120313CE007908CC0079
:100C3E007808CB007B08F1007A08F0004C08F3002E
:100C4E004B08F2000A128A1116250A128A1171082F
:100C5E0083120313CC007008CB000130FC007C081B
:100C6E00CE074B084C04031D3D2E3E2E212E4E0862
:100C7E008400831380010130CE027B08F1007A08D4
:100C8E00F0007908F3007808F2000A128A119A240B
:100C9E000A128A117008FC007C0883120313CD001F
:100CAE007B08F1007A08F0007908F3007808F2006A
:100CBE000A128A1116250A128A117108F900700893
:100CCE00F8000A30831203134D02031C6F2E702E90
:100CDE00742E0730FC007C08CD073030FC007C08F9
:100CEE00CD074D08FC004E0884007C08831380005D
:100CFE000130CE0278087904031D862E872E442EED
:100D0E000130FC007C08CE0708000A128A118223EB
:100D1E000A128A110A128A11BC230A128A1183122C
:100D2E0003133603031D9C2E9D2E8C2E0A128A1140
:100D3E00D4240A128A1183120313D5005508B30066
:100D4E000A128A11D4240A128A1183120313D500AF
:100D5E005508B2000A128A11D4240A128A1183127B
:100D6E000313D5005508B5000A128A11D4240A12AD
:100D7E008A1183120313D5005508B4000A128A1182
:100D8E00D4240A128A1183120313D500D6015508F2
:100D9E00A0005608A10033083207D500D601D60DA3
:100DAE0035085507D7000030031801305607D80014
:100DBE0034085707D9000030031801305807DA00FD
:100DCE00FF305905DB0000305A05DC0021085C06B7
:100DDE00031DF32E20085B06031DF62EF72E8C2E18
:100DEE000A30F0000030F1003308D500D601550866
:100DFE00F2005608F3000A128A11B3250A128A115C
:100E0E00710883120313AB007008AA002B08D000E0
:100E1E002A08CF000A30D1000030D20037300A1233
:100E2E008A11FC230A128A110A30F0000030F100F8
:100E3E00831203133308D500D6015508F200560865
:100E4E00F3000A128A115A250A128A1171088312A6
:100E5E000313AD007008AC002D08D0002C08CF0095
:100E6E000A30D1000030D2003C300A128A11FC2325
:100E7E000A128A110A30F0000030F10083120313B7
:100E8E003508D500D6015508F2005608F3000A12AF
:100E9E008A11B3250A128A11710883120313AF0047
:100EAE007008AE002F08D0002E08CF000A30D100F7
:100EBE000030D20041300A128A11FC230A128A1124
:100ECE000A30F0000030F100831203133508D5000C
:100EDE00D6015508F2005608F3000A128A115A2557
:100EEE000A128A11710883120313B1007008B00040
:100EFE003108D0003008CF000A30D1000030D200C7
:100F0E0046300A128A11FC230A128A113C308312CF
:100F1E000313D5005508F00037300A128A117124D8
:100F2E000A128A11463083120313D5005508F000B9
:100F3E0041300A128A1171240A128A1101300A12E2
:100F4E008A115E230A128A112130F3008030F400D8
:100F5E000A128A1122240A128A114130F30000303B
:100F6E00F4000A128A1122240A128A110130F300A7
:100F7E008030F4000A128A1122240A128A110830D3
:100F8E0083120313D600C930D500D50BCC2FD60B48
:100F9E00CC2FC0300A128A115E230A128A110C302D
:100FAE00F3008030F4000A128A1122240A128A11E8
:100FBE003730F3000030F4000A128A1122240A128C
:100FCE008A111730F3008030F4000A128A1122249D
:100FDE000A128A118C2E08008313203084004B30A5
:100FEE000A128A1147230A128A1183010A128A11E0
:020FFE00DC2BEA
:04400E00D2E0FFFFFE
:00000001FF
